{"abi":[{"type":"constructor","inputs":[{"name":"_underlyingUSD","type":"address","internalType":"address"},{"name":"_alignedServiceManager","type":"address","internalType":"address"},{"name":"_paymentServiceAddr","type":"address","internalType":"address"},{"name":"_elfCommitment","type":"bytes32","internalType":"bytes32"},{"name":"_reclaimHide","type":"address","internalType":"address"}],"stateMutability":"nonpayable"},{"type":"function","name":"alignedServiceManager","inputs":[],"outputs":[{"name":"","type":"address","internalType":"address"}],"stateMutability":"view"},{"type":"function","name":"allowance","inputs":[{"name":"owner","type":"address","internalType":"address"},{"name":"spender","type":"address","internalType":"address"}],"outputs":[{"name":"","type":"uint256","internalType":"uint256"}],"stateMutability":"view"},{"type":"function","name":"approve","inputs":[{"name":"spender","type":"address","internalType":"address"},{"name":"value","type":"uint256","internalType":"uint256"}],"outputs":[{"name":"","type":"bool","internalType":"bool"}],"stateMutability":"nonpayable"},{"type":"function","name":"balanceOf","inputs":[{"name":"account","type":"address","internalType":"address"}],"outputs":[{"name":"","type":"uint256","internalType":"uint256"}],"stateMutability":"view"},{"type":"function","name":"decimals","inputs":[],"outputs":[{"name":"","type":"uint8","internalType":"uint8"}],"stateMutability":"view"},{"type":"function","name":"elfCommitment","inputs":[],"outputs":[{"name":"","type":"bytes32","internalType":"bytes32"}],"stateMutability":"view"},{"type":"function","name":"fillOfframp","inputs":[{"name":"proofCommitment","type":"bytes32","internalType":"bytes32"},{"name":"pubInputCommitment","type":"bytes32","internalType":"bytes32"},{"name":"provingSystemAuxDataCommitment","type":"bytes32","internalType":"bytes32"},{"name":"proofGeneratorAddr","type":"bytes20","internalType":"bytes20"},{"name":"batchMerkleRoot","type":"bytes32","internalType":"bytes32"},{"name":"merkleProof","type":"bytes","internalType":"bytes"},{"name":"verificationDataBatchIndex","type":"uint256","internalType":"uint256"},{"name":"pubInputBytes","type":"bytes","internalType":"bytes"}],"outputs":[],"stateMutability":"nonpayable"},{"type":"function","name":"mint","inputs":[{"name":"amount","type":"uint256","internalType":"uint256"}],"outputs":[],"stateMutability":"nonpayable"},{"type":"function","name":"name","inputs":[],"outputs":[{"name":"","type":"string","internalType":"string"}],"stateMutability":"view"},{"type":"function","name":"offrampRequests","inputs":[{"name":"","type":"bytes32","internalType":"bytes32"}],"outputs":[{"name":"user","type":"address","internalType":"address"},{"name":"amount","type":"uint256","internalType":"uint256"},{"name":"amountRealWorld","type":"uint256","internalType":"uint256"},{"name":"channelAccount","type":"bytes32","internalType":"bytes32"},{"name":"channelId","type":"bytes32","internalType":"bytes32"},{"name":"isProved","type":"bool","internalType":"bool"},{"name":"proof","type":"bytes32","internalType":"bytes32"},{"name":"reclaimProof","type":"bytes32","internalType":"bytes32"}],"stateMutability":"view"},{"type":"function","name":"paymentServiceAddr","inputs":[],"outputs":[{"name":"","type":"address","internalType":"address"}],"stateMutability":"view"},{"type":"function","name":"reclaimHide","inputs":[],"outputs":[{"name":"","type":"address","internalType":"address"}],"stateMutability":"view"},{"type":"function","name":"requestOfframp","inputs":[{"name":"params","type":"tuple","internalType":"struct Jackramp.OfframpRequestParams","components":[{"name":"user","type":"address","internalType":"address"},{"name":"amount","type":"uint256","internalType":"uint256"},{"name":"amountRealWorld","type":"uint256","internalType":"uint256"},{"name":"channelAccount","type":"bytes32","internalType":"bytes32"},{"name":"channelId","type":"bytes32","internalType":"bytes32"}]}],"outputs":[],"stateMutability":"nonpayable"},{"type":"function","name":"symbol","inputs":[],"outputs":[{"name":"","type":"string","internalType":"string"}],"stateMutability":"view"},{"type":"function","name":"totalSupply","inputs":[],"outputs":[{"name":"","type":"uint256","internalType":"uint256"}],"stateMutability":"view"},{"type":"function","name":"transfer","inputs":[{"name":"to","type":"address","internalType":"address"},{"name":"value","type":"uint256","internalType":"uint256"}],"outputs":[{"name":"","type":"bool","internalType":"bool"}],"stateMutability":"nonpayable"},{"type":"function","name":"transferFrom","inputs":[{"name":"from","type":"address","internalType":"address"},{"name":"to","type":"address","internalType":"address"},{"name":"value","type":"uint256","internalType":"uint256"}],"outputs":[{"name":"","type":"bool","internalType":"bool"}],"stateMutability":"nonpayable"},{"type":"function","name":"underlyingUSD","inputs":[],"outputs":[{"name":"","type":"address","internalType":"address"}],"stateMutability":"view"},{"type":"function","name":"usedProofs","inputs":[{"name":"","type":"bytes32","internalType":"bytes32"}],"outputs":[{"name":"","type":"bool","internalType":"bool"}],"stateMutability":"view"},{"type":"function","name":"usedReclaimProofs","inputs":[{"name":"","type":"bytes32","internalType":"bytes32"}],"outputs":[{"name":"","type":"bool","internalType":"bool"}],"stateMutability":"view"},{"type":"function","name":"withdraw","inputs":[{"name":"amount","type":"uint256","internalType":"uint256"}],"outputs":[],"stateMutability":"nonpayable"},{"type":"event","name":"Approval","inputs":[{"name":"owner","type":"address","indexed":true,"internalType":"address"},{"name":"spender","type":"address","indexed":true,"internalType":"address"},{"name":"value","type":"uint256","indexed":false,"internalType":"uint256"}],"anonymous":false},{"type":"event","name":"FillOfframp","inputs":[{"name":"requestOfframpId","type":"bytes32","indexed":true,"internalType":"bytes32"},{"name":"receiver","type":"address","indexed":false,"internalType":"address"},{"name":"proof","type":"bytes32","indexed":false,"internalType":"bytes32"},{"name":"reclaimProof","type":"bytes32","indexed":false,"internalType":"bytes32"}],"anonymous":false},{"type":"event","name":"Mint","inputs":[{"name":"user","type":"address","indexed":true,"internalType":"address"},{"name":"amount","type":"uint256","indexed":false,"internalType":"uint256"}],"anonymous":false},{"type":"event","name":"RequestOfframp","inputs":[{"name":"requestOfframpId","type":"bytes32","indexed":true,"internalType":"bytes32"},{"name":"params","type":"tuple","indexed":false,"internalType":"struct Jackramp.OfframpRequestParams","components":[{"name":"user","type":"address","internalType":"address"},{"name":"amount","type":"uint256","internalType":"uint256"},{"name":"amountRealWorld","type":"uint256","internalType":"uint256"},{"name":"channelAccount","type":"bytes32","internalType":"bytes32"},{"name":"channelId","type":"bytes32","internalType":"bytes32"}]}],"anonymous":false},{"type":"event","name":"Transfer","inputs":[{"name":"from","type":"address","indexed":true,"internalType":"address"},{"name":"to","type":"address","indexed":true,"internalType":"address"},{"name":"value","type":"uint256","indexed":false,"internalType":"uint256"}],"anonymous":false},{"type":"event","name":"Withdraw","inputs":[{"name":"user","type":"address","indexed":true,"internalType":"address"},{"name":"amount","type":"uint256","indexed":false,"internalType":"uint256"}],"anonymous":false},{"type":"error","name":"ERC20InsufficientAllowance","inputs":[{"name":"spender","type":"address","internalType":"address"},{"name":"allowance","type":"uint256","internalType":"uint256"},{"name":"needed","type":"uint256","internalType":"uint256"}]},{"type":"error","name":"ERC20InsufficientBalance","inputs":[{"name":"sender","type":"address","internalType":"address"},{"name":"balance","type":"uint256","internalType":"uint256"},{"name":"needed","type":"uint256","internalType":"uint256"}]},{"type":"error","name":"ERC20InvalidApprover","inputs":[{"name":"approver","type":"address","internalType":"address"}]},{"type":"error","name":"ERC20InvalidReceiver","inputs":[{"name":"receiver","type":"address","internalType":"address"}]},{"type":"error","name":"ERC20InvalidSender","inputs":[{"name":"sender","type":"address","internalType":"address"}]},{"type":"error","name":"ERC20InvalidSpender","inputs":[{"name":"spender","type":"address","internalType":"address"}]},{"type":"error","name":"InvalidElf","inputs":[{"name":"provingSystemAuxDataCommitment","type":"bytes32","internalType":"bytes32"}]},{"type":"error","name":"InvalidReclaimProof","inputs":[]},{"type":"error","name":"OfframpRequestAlreadyExists","inputs":[]},{"type":"error","name":"OfframpRequestAlreadyProved","inputs":[]},{"type":"error","name":"OfframpRequestAmountIsZero","inputs":[]},{"type":"error","name":"OfframpRequestChannelAccountIsEmpty","inputs":[]},{"type":"error","name":"OfframpRequestChannelIdIsEmpty","inputs":[]},{"type":"error","name":"OfframpRequestDoesNotExist","inputs":[]},{"type":"error","name":"ProofAlreadyUsed","inputs":[{"name":"fullHash","type":"bytes32","internalType":"bytes32"}]},{"type":"error","name":"ProofGeneratorAddrMismatch","inputs":[]},{"type":"error","name":"ProofNotIncludedInBatch","inputs":[]},{"type":"error","name":"PubInputCommitmentMismatch","inputs":[]},{"type":"error","name":"ReclaimProofAlreadyUsed","inputs":[{"name":"hashedClaimInfo","type":"bytes32","internalType":"bytes32"}]},{"type":"error","name":"ReentrancyGuardReentrantCall","inputs":[]},{"type":"error","name":"SafeERC20FailedOperation","inputs":[{"name":"token","type":"address","internalType":"address"}]},{"type":"error","name":"StaticCallFailed","inputs":[]}],"bytecode":{"object":"0x61012060405234801562000011575f80fd5b5060405162001d5d38038062001d5d8339810160408190526200003491620000d9565b6040518060400160405280600681526020016513d9999554d160d21b815250604051806040016040528060068152602001651bd9999554d160d21b8152508160039081620000839190620001da565b506004620000928282620001da565b5050506001600160a01b039485166101005292841660805290831660a05260c0521660e052620002a6565b80516001600160a01b0381168114620000d4575f80fd5b919050565b5f805f805f60a08688031215620000ee575f80fd5b620000f986620000bd565b94506200010960208701620000bd565b93506200011960408701620000bd565b9250606086015191506200013060808701620000bd565b90509295509295909350565b634e487b7160e01b5f52604160045260245ffd5b600181811c908216806200016557607f821691505b6020821081036200018457634e487b7160e01b5f52602260045260245ffd5b50919050565b601f821115620001d557805f5260205f20601f840160051c81016020851015620001b15750805b601f840160051c820191505b81811015620001d2575f8155600101620001bd565b50505b505050565b81516001600160401b03811115620001f657620001f66200013c565b6200020e8162000207845462000150565b846200018a565b602080601f83116001811462000244575f84156200022c5750858301515b5f19600386901b1c1916600185901b1785556200029e565b5f85815260208120601f198616915b82811015620002745788860151825594840194600190910190840162000253565b50858210156200029257878501515f19600388901b60f8161c191681555b505060018460011b0185555b505050505050565b60805160a05160c05160e05161010051611a48620003155f395f818161030c01528181610737015281816107ca0152610c9c01525f81816102a50152610b1001525f81816101a3015261083c01525f818161033301526109f401525f818161041701526109c30152611a485ff3fe608060405234801561000f575f80fd5b5060043610610132575f3560e01c806370a08231116100b4578063a448bace11610079578063a448bace14610370578063a9059cbb14610392578063bea17cad146103a5578063c30a0f25146103b8578063dd62ed3e146103da578063f19cd88214610412575f80fd5b806370a08231146102df5780637a5457de1461030757806390a05f2e1461032e57806395d89b4114610355578063a0712d681461035d575f80fd5b806323b872dd116100fa57806323b872dd146101c55780632e1a7d4d146101d8578063313ce567146101eb578063496a3047146101fa5780634a57d6c5146102a0575f80fd5b806306fdde0314610136578063095ea7b314610154578063151c58601461017757806318160ddd1461018c5780632212d6071461019e575b5f80fd5b61013e610439565b60405161014b9190611262565b60405180910390f35b61016761016236600461128f565b6104c9565b604051901515815260200161014b565b61018a61018536600461136d565b6104e2565b005b6002545b60405190815260200161014b565b6101907f000000000000000000000000000000000000000000000000000000000000000081565b6101676101d33660046113c6565b6106f5565b61018a6101e6366004611404565b610718565b6040516012815260200161014b565b610259610208366004611404565b600560208190525f9182526040909120805460018201546002830154600384015460048501549585015460068601546007909601546001600160a01b03909516969395929491939260ff9091169188565b604080516001600160a01b03909916895260208901979097529587019490945260608601929092526080850152151560a084015260c083015260e08201526101000161014b565b6102c77f000000000000000000000000000000000000000000000000000000000000000081565b6040516001600160a01b03909116815260200161014b565b6101906102ed36600461141b565b6001600160a01b03165f9081526020819052604090205490565b6102c77f000000000000000000000000000000000000000000000000000000000000000081565b6102c77f000000000000000000000000000000000000000000000000000000000000000081565b61013e61079c565b61018a61036b366004611404565b6107ab565b61016761037e366004611404565b60076020525f908152604090205460ff1681565b6101676103a036600461128f565b610824565b61018a6103b33660046114af565b610831565b6101676103c6366004611404565b60066020525f908152604090205460ff1681565b6101906103e8366004611560565b6001600160a01b039182165f90815260016020908152604080832093909416825291909152205490565b6102c77f000000000000000000000000000000000000000000000000000000000000000081565b60606003805461044890611597565b80601f016020809104026020016040519081016040528092919081815260200182805461047490611597565b80156104bf5780601f10610496576101008083540402835291602001916104bf565b820191905f5260205f20905b8154815290600101906020018083116104a257829003601f168201915b5050505050905090565b5f336104d6818585610d23565b60019150505b92915050565b6104ea610d35565b5f816040516020016104fc91906115cf565b60408051601f1981840301815291815281516020928301205f81815260059093529120549091506001600160a01b03161561054a5760405163353cdab760e21b815260040160405180910390fd5b81602001515f0361056e5760405163264f480b60e11b815260040160405180910390fd5b81604001515f036105925760405163264f480b60e11b815260040160405180910390fd5b60608201516105b35760405162573e6160e71b815260040160405180910390fd5b60808201516105d55760405163615f809760e01b815260040160405180910390fd5b338083526020830151604084018190526105f29130918290610da4565b604080516101008101825283516001600160a01b039081168252602080860151818401908152868501518486019081526060808901519086019081526080808a01519087019081525f60a0880181815260c0890182815260e08a018381528c8452600598899052928b902099518a546001600160a01b03191699169890981789559451600189015592516002880155905160038701555160048601559051918401805460ff19169215159290921790915590516006830155516007909101555181907f32d0f895bbe2d7f9cf027572e5cb3272ba966ebc81bcf6425834bd6fd969535b906106e19085906115cf565b60405180910390a2506106f2610e11565b50565b5f33610702858285610e3b565b61070d858585610eb0565b506001949350505050565b610720610d35565b61072a3382610f0d565b61075e6001600160a01b037f0000000000000000000000000000000000000000000000000000000000000000163383610f45565b60405181815233907f884edad9ce6fa2440d8a54cc123490eb96d2768479d49ff9c7366125a9424364906020015b60405180910390a26106f2610e11565b60606004805461044890611597565b6107b3610d35565b6107bd3382610f76565b6107f26001600160a01b037f000000000000000000000000000000000000000000000000000000000000000016333084610da4565b60405181815233907f0f6798a560793a54c3bcfe86a93cde1e73087d944c0ea20544137d41213968859060200161078c565b5f336104d6818585610eb0565b610839610d35565b857f0000000000000000000000000000000000000000000000000000000000000000146108815760405163636ca83360e11b8152600481018790526024015b60405180910390fd5b606085901c33146108a5576040516355007c6160e01b815260040160405180910390fd5b806040516020016108b6919061160d565b6040516020818303038152906040528051906020012087146108eb5760405163d8cc96d560e01b815260040160405180910390fd5b60408051602081018a9052908101889052606081018790526bffffffffffffffffffffffff19861660808201525f906094016040516020818303038152906040528051906020012090505f8280602001905181019061094a91906117ec565b5f8381526006602052604090205490915060ff161561097f57604051632572a82f60e11b815260048101839052602401610878565b602080820151515f9081526007909152604090205460ff16156109bf576020810151516040516308a4db6f60e41b81526004810191909152602401610878565b5f807f00000000000000000000000000000000000000000000000000000000000000006001600160a01b03168c8c8c8c8c8c8c7f0000000000000000000000000000000000000000000000000000000000000000604051602401610a2a9897969594939291906118ae565b60408051601f198184030181529181526020820180516001600160e01b03166306045a9160e01b17905251610a5f919061160d565b5f60405180830381855afa9150503d805f8114610a97576040519150601f19603f3d011682016040523d82523d5f602084013e610a9c565b606091505b509150915081610abf57604051633842fc7360e21b815260040160405180910390fd5b5f81806020019051810190610ad49190611914565b905080610af457604051635a36999760e11b815260040160405180910390fd5b6020840151604051631a625fd560e01b81526001600160a01b037f00000000000000000000000000000000000000000000000000000000000000001691631a625fd591610b449190600401611933565b602060405180830381865afa158015610b5f573d5f803e3d5ffd5b505050506040513d601f19601f82011682018060405250810190610b839190611914565b610ba05760405163caf6df5160e01b815260040160405180910390fd5b83516040515f91610bb3916020016115cf565b60408051601f1981840301815291815281516020928301205f818152600590935291208054919250906001600160a01b0316610c02576040516314e818f960e31b815260040160405180910390fd5b600581015460ff1615610c285760405163e83ef59360e01b815260040160405180910390fd5b600581018054600160ff19918216811790925560068084018a905560208981018051516007808801919091555f8d81529383526040808520805487168817905591515184529091529020805490911682179055810154610c89903090610f0d565b6001810154610cc4906001600160a01b037f000000000000000000000000000000000000000000000000000000000000000016903390610f45565b60208087015151604080513381529283018a905282015282907f28632964c2655977781f1b112a838c0e919674f019de8ff0b5c5ead7a2ab62f19060600160405180910390a250505050505050610d19610e11565b5050505050505050565b610d308383836001610faa565b505050565b7f9b779b17422d0df92223018b32b4d1fa46e071723d6817e2486d003becc55f005c15610d7557604051633ee5aeb560e01b815260040160405180910390fd5b610da260017f9b779b17422d0df92223018b32b4d1fa46e071723d6817e2486d003becc55f005b9061107c565b565b6040516001600160a01b038481166024830152838116604483015260648201839052610e0b9186918216906323b872dd906084015b604051602081830303815290604052915060e01b6020820180516001600160e01b038381831617835250505050611083565b50505050565b610da25f7f9b779b17422d0df92223018b32b4d1fa46e071723d6817e2486d003becc55f00610d9c565b6001600160a01b038381165f908152600160209081526040808320938616835292905220545f198114610e0b5781811015610ea257604051637dc7a0d960e11b81526001600160a01b03841660048201526024810182905260448101839052606401610878565b610e0b84848484035f610faa565b6001600160a01b038316610ed957604051634b637e8f60e11b81525f6004820152602401610878565b6001600160a01b038216610f025760405163ec442f0560e01b81525f6004820152602401610878565b610d308383836110ef565b6001600160a01b038216610f3657604051634b637e8f60e11b81525f6004820152602401610878565b610f41825f836110ef565b5050565b6040516001600160a01b03838116602483015260448201839052610d3091859182169063a9059cbb90606401610dd9565b6001600160a01b038216610f9f5760405163ec442f0560e01b81525f6004820152602401610878565b610f415f83836110ef565b6001600160a01b038416610fd35760405163e602df0560e01b81525f6004820152602401610878565b6001600160a01b038316610ffc57604051634a1406b160e11b81525f6004820152602401610878565b6001600160a01b038085165f9081526001602090815260408083209387168352929052208290558015610e0b57826001600160a01b0316846001600160a01b03167f8c5be1e5ebec7d5bd14f71427d1e84f3dd0314c0f7b2291e5b200ac8c7c3b9258460405161106e91815260200190565b60405180910390a350505050565b80825d5050565b5f8060205f8451602086015f885af1806110a2576040513d5f823e3d81fd5b50505f513d915081156110b95780600114156110c6565b6001600160a01b0384163b155b15610e0b57604051635274afe760e01b81526001600160a01b0385166004820152602401610878565b6001600160a01b038316611119578060025f82825461110e91906119f3565b909155506111899050565b6001600160a01b0383165f908152602081905260409020548181101561116b5760405163391434e360e21b81526001600160a01b03851660048201526024810182905260448101839052606401610878565b6001600160a01b0384165f9081526020819052604090209082900390555b6001600160a01b0382166111a5576002805482900390556111c3565b6001600160a01b0382165f9081526020819052604090208054820190555b816001600160a01b0316836001600160a01b03167fddf252ad1be2c89b69c2b068fc378daa952ba7f163c4a11628f55a4df523b3ef8360405161120891815260200190565b60405180910390a3505050565b5f5b8381101561122f578181015183820152602001611217565b50505f910152565b5f815180845261124e816020860160208601611215565b601f01601f19169290920160200192915050565b602081525f6112746020830184611237565b9392505050565b6001600160a01b03811681146106f2575f80fd5b5f80604083850312156112a0575f80fd5b82356112ab8161127b565b946020939093013593505050565b634e487b7160e01b5f52604160045260245ffd5b60405160a0810167ffffffffffffffff811182821017156112f0576112f06112b9565b60405290565b6040805190810167ffffffffffffffff811182821017156112f0576112f06112b9565b6040516080810167ffffffffffffffff811182821017156112f0576112f06112b9565b604051601f8201601f1916810167ffffffffffffffff81118282101715611365576113656112b9565b604052919050565b5f60a0828403121561137d575f80fd5b6113856112cd565b82356113908161127b565b80825250602083013560208201526040830135604082015260608301356060820152608083013560808201528091505092915050565b5f805f606084860312156113d8575f80fd5b83356113e38161127b565b925060208401356113f38161127b565b929592945050506040919091013590565b5f60208284031215611414575f80fd5b5035919050565b5f6020828403121561142b575f80fd5b81356112748161127b565b5f67ffffffffffffffff82111561144f5761144f6112b9565b50601f01601f191660200190565b5f82601f83011261146c575f80fd5b813561147f61147a82611436565b61133c565b818152846020838601011115611493575f80fd5b816020850160208301375f918101602001919091529392505050565b5f805f805f805f80610100898b0312156114c7575f80fd5b88359750602089013596506040890135955060608901356bffffffffffffffffffffffff19811681146114f8575f80fd5b94506080890135935060a089013567ffffffffffffffff8082111561151b575f80fd5b6115278c838d0161145d565b945060c08b0135935060e08b0135915080821115611543575f80fd5b506115508b828c0161145d565b9150509295985092959890939650565b5f8060408385031215611571575f80fd5b823561157c8161127b565b9150602083013561158c8161127b565b809150509250929050565b600181811c908216806115ab57607f821691505b6020821081036115c957634e487b7160e01b5f52602260045260245ffd5b50919050565b81516001600160a01b031681526020808301519082015260408083015190820152606080830151908201526080918201519181019190915260a00190565b5f825161161e818460208701611215565b9190910192915050565b805163ffffffff8116811461163b575f80fd5b919050565b5f82601f83011261164f575f80fd5b8151602067ffffffffffffffff8083111561166c5761166c6112b9565b8260051b61167b83820161133c565b9384528581018301938381019088861115611694575f80fd5b84880192505b85831015611706578251848111156116b0575f80fd5b8801603f81018a136116c0575f80fd5b8581015160406116d261147a83611436565b8281528c828486010111156116e5575f80fd5b6116f4838a8301848701611215565b8552505050918401919084019061169a565b98975050505050505050565b5f60408284031215611722575f80fd5b61172a6112f6565b905081518152602082015167ffffffffffffffff8082111561174a575f80fd5b9083019081850360a081121561175e575f80fd5b6117666112f6565b6080821215611773575f80fd5b61177b611319565b915083518252602084015161178f8161127b565b60208301526117a060408501611628565b60408301526117b160608501611628565b6060830152908152608083015190828211156117cb575f80fd5b6117d787838601611640565b60208201528060208601525050505092915050565b5f602082840312156117fc575f80fd5b815167ffffffffffffffff80821115611813575f80fd5b9083019081850360c0811215611827575f80fd5b61182f6112f6565b60a082121561183c575f80fd5b6118446112cd565b915083516118518161127b565b808352506020840151602083015260408401516040830152606084015160608301526080840151608083015281815260a0840151915082821115611893575f80fd5b61189f87838601611712565b60208201529695505050505050565b5f6101008a83528960208401528860408401526bffffffffffffffffffffffff19881660608401528660808401528060a08401526118ee81840187611237565b60c084019590955250506001600160a01b039190911660e0909101529695505050505050565b5f60208284031215611924575f80fd5b81518015158114611274575f80fd5b5f602080835283518184015280840151604080850152610100840181518051606087015260018060a01b0384820151166080870152604081015163ffffffff80821660a08901528060608401511660c089015250505082820151915060a060e086015280825180835261012092508287019150828160051b880101925084840193505f5b818110156119e65761011f198885030183526119d4848651611237565b948601949350918501916001016119b7565b5091979650505050505050565b808201808211156104dc57634e487b7160e01b5f52601160045260245ffdfea2646970667358221220eb64cb85facbfa2bf92f6d85f6e3189fa27a6e9ccf58b939024cd1bb7c7efe0464736f6c63430008180033","linkReferences":{}},"methodIdentifiers":{"alignedServiceManager()":"f19cd882","allowance(address,address)":"dd62ed3e","approve(address,uint256)":"095ea7b3","balanceOf(address)":"70a08231","decimals()":"313ce567","elfCommitment()":"2212d607","fillOfframp(bytes32,bytes32,bytes32,bytes20,bytes32,bytes,uint256,bytes)":"bea17cad","mint(uint256)":"a0712d68","name()":"06fdde03","offrampRequests(bytes32)":"496a3047","paymentServiceAddr()":"90a05f2e","reclaimHide()":"4a57d6c5","requestOfframp((address,uint256,uint256,bytes32,bytes32))":"151c5860","symbol()":"95d89b41","totalSupply()":"18160ddd","transfer(address,uint256)":"a9059cbb","transferFrom(address,address,uint256)":"23b872dd","underlyingUSD()":"7a5457de","usedProofs(bytes32)":"c30a0f25","usedReclaimProofs(bytes32)":"a448bace","withdraw(uint256)":"2e1a7d4d"},"id":14}